{
  "_format": "hh-sol-artifact-1",
  "contractName": "BerithSwap",
  "sourceName": "contracts/berith-swap.sol",
  "abi": [
    {
      "anonymous": false,
      "inputs": [
        {
          "indexed": false,
          "internalType": "uint64",
          "name": "depositNonce",
          "type": "uint64"
        },
        {
          "indexed": true,
          "internalType": "address",
          "name": "recipient",
          "type": "address"
        }
      ],
      "name": "Deposit",
      "type": "event"
    },
    {
      "anonymous": false,
      "inputs": [
        {
          "indexed": true,
          "internalType": "address",
          "name": "previousOwner",
          "type": "address"
        },
        {
          "indexed": true,
          "internalType": "address",
          "name": "newOwner",
          "type": "address"
        }
      ],
      "name": "OwnershipTransferred",
      "type": "event"
    },
    {
      "inputs": [
        {
          "internalType": "address",
          "name": "receipientAddress",
          "type": "address"
        }
      ],
      "name": "deposit",
      "outputs": [],
      "stateMutability": "payable",
      "type": "function"
    },
    {
      "inputs": [],
      "name": "depositNonce",
      "outputs": [
        {
          "internalType": "uint64",
          "name": "",
          "type": "uint64"
        }
      ],
      "stateMutability": "view",
      "type": "function"
    },
    {
      "inputs": [],
      "name": "owner",
      "outputs": [
        {
          "internalType": "address",
          "name": "",
          "type": "address"
        }
      ],
      "stateMutability": "view",
      "type": "function"
    },
    {
      "inputs": [],
      "name": "renounceOwnership",
      "outputs": [],
      "stateMutability": "nonpayable",
      "type": "function"
    },
    {
      "inputs": [],
      "name": "transferFunds",
      "outputs": [],
      "stateMutability": "nonpayable",
      "type": "function"
    },
    {
      "inputs": [
        {
          "internalType": "address",
          "name": "newOwner",
          "type": "address"
        }
      ],
      "name": "transferOwnership",
      "outputs": [],
      "stateMutability": "nonpayable",
      "type": "function"
    }
  ],
  "bytecode": "0x608060405234801561001057600080fd5b5061002d61002261003260201b60201c565b61003a60201b60201c565b6100fe565b600033905090565b60008060009054906101000a900473ffffffffffffffffffffffffffffffffffffffff169050816000806101000a81548173ffffffffffffffffffffffffffffffffffffffff021916908373ffffffffffffffffffffffffffffffffffffffff1602179055508173ffffffffffffffffffffffffffffffffffffffff168173ffffffffffffffffffffffffffffffffffffffff167f8be0079c531659141344cd1fd0a4f28419497f9722a3daafe3b4186f6b6457e060405160405180910390a35050565b6107388061010d6000396000f3fe6080604052600436106100555760003560e01c80633c68eb811461005a578063715018a6146100715780638da5cb5b14610088578063de35f5cb146100b3578063f2fde38b146100de578063f340fa0114610107575b600080fd5b34801561006657600080fd5b5061006f610123565b005b34801561007d57600080fd5b50610086610181565b005b34801561009457600080fd5b5061009d610195565b6040516100aa9190610546565b60405180910390f35b3480156100bf57600080fd5b506100c86101be565b6040516100d591906105a1565b60405180910390f35b3480156100ea57600080fd5b50610105600480360381019061010091906104b9565b6101d8565b005b610121600480360381019061011c91906104b9565b61025c565b005b61012b61035a565b6000610135610195565b90508073ffffffffffffffffffffffffffffffffffffffff166108fc479081150290604051600060405180830381858888f1935050505015801561017d573d6000803e3d6000fd5b5050565b61018961035a565b61019360006103d8565b565b60008060009054906101000a900473ffffffffffffffffffffffffffffffffffffffff16905090565b600060149054906101000a900467ffffffffffffffff1681565b6101e061035a565b600073ffffffffffffffffffffffffffffffffffffffff168173ffffffffffffffffffffffffffffffffffffffff161415610250576040517f08c379a000000000000000000000000000000000000000000000000000000000815260040161024790610561565b60405180910390fd5b610259816103d8565b50565b60008073ffffffffffffffffffffffffffffffffffffffff168273ffffffffffffffffffffffffffffffffffffffff1614156102a15761029a61049c565b90506102a5565b8190505b6000601481819054906101000a900467ffffffffffffffff16809291906102cb90610613565b91906101000a81548167ffffffffffffffff021916908367ffffffffffffffff160217905550508073ffffffffffffffffffffffffffffffffffffffff167f99a074500a5356040a1ff5092bc3587823e68cab9370b9a494b34c4db40535e4600060149054906101000a900467ffffffffffffffff1660405161034e91906105a1565b60405180910390a25050565b61036261049c565b73ffffffffffffffffffffffffffffffffffffffff16610380610195565b73ffffffffffffffffffffffffffffffffffffffff16146103d6576040517f08c379a00000000000000000000000000000000000000000000000000000000081526004016103cd90610581565b60405180910390fd5b565b60008060009054906101000a900473ffffffffffffffffffffffffffffffffffffffff169050816000806101000a81548173ffffffffffffffffffffffffffffffffffffffff021916908373ffffffffffffffffffffffffffffffffffffffff1602179055508173ffffffffffffffffffffffffffffffffffffffff168173ffffffffffffffffffffffffffffffffffffffff167f8be0079c531659141344cd1fd0a4f28419497f9722a3daafe3b4186f6b6457e060405160405180910390a35050565b600033905090565b6000813590506104b3816106eb565b92915050565b6000602082840312156104cb57600080fd5b60006104d9848285016104a4565b91505092915050565b6104eb816105cd565b82525050565b60006104fe6026836105bc565b915061050982610673565b604082019050919050565b60006105216020836105bc565b915061052c826106c2565b602082019050919050565b610540816105ff565b82525050565b600060208201905061055b60008301846104e2565b92915050565b6000602082019050818103600083015261057a816104f1565b9050919050565b6000602082019050818103600083015261059a81610514565b9050919050565b60006020820190506105b66000830184610537565b92915050565b600082825260208201905092915050565b60006105d8826105df565b9050919050565b600073ffffffffffffffffffffffffffffffffffffffff82169050919050565b600067ffffffffffffffff82169050919050565b600061061e826105ff565b915067ffffffffffffffff82141561063957610638610644565b5b600182019050919050565b7f4e487b7100000000000000000000000000000000000000000000000000000000600052601160045260246000fd5b7f4f776e61626c653a206e6577206f776e657220697320746865207a65726f206160008201527f6464726573730000000000000000000000000000000000000000000000000000602082015250565b7f4f776e61626c653a2063616c6c6572206973206e6f7420746865206f776e6572600082015250565b6106f4816105cd565b81146106ff57600080fd5b5056fea2646970667358221220b3286b087ba79916d627b378799ce954869bb429a64b794866cc7508dc7cbbbc64736f6c63430008010033",
  "linkReferences": {},
  "deployedLinkReferences": {}
}